{
  "contractName": "VoucherToken",
  "abi": [
    {
      "constant": true,
      "inputs": [],
      "name": "name",
      "outputs": [
        {
          "name": "",
          "type": "string"
        }
      ],
      "payable": false,
      "stateMutability": "view",
      "type": "function"
    },
    {
      "constant": false,
      "inputs": [
        {
          "name": "spender",
          "type": "address"
        },
        {
          "name": "amount",
          "type": "uint256"
        }
      ],
      "name": "approve",
      "outputs": [
        {
          "name": "",
          "type": "bool"
        }
      ],
      "payable": false,
      "stateMutability": "nonpayable",
      "type": "function"
    },
    {
      "constant": true,
      "inputs": [],
      "name": "sponsorTransferFeeInBaseToken",
      "outputs": [
        {
          "name": "",
          "type": "uint256"
        }
      ],
      "payable": false,
      "stateMutability": "view",
      "type": "function"
    },
    {
      "constant": true,
      "inputs": [],
      "name": "poolAddress",
      "outputs": [
        {
          "name": "",
          "type": "address"
        }
      ],
      "payable": false,
      "stateMutability": "view",
      "type": "function"
    },
    {
      "constant": true,
      "inputs": [],
      "name": "totalSupply",
      "outputs": [
        {
          "name": "",
          "type": "uint256"
        }
      ],
      "payable": false,
      "stateMutability": "view",
      "type": "function"
    },
    {
      "constant": false,
      "inputs": [
        {
          "name": "sender",
          "type": "address"
        },
        {
          "name": "recipient",
          "type": "address"
        },
        {
          "name": "amount",
          "type": "uint256"
        }
      ],
      "name": "transferFrom",
      "outputs": [
        {
          "name": "",
          "type": "bool"
        }
      ],
      "payable": false,
      "stateMutability": "nonpayable",
      "type": "function"
    },
    {
      "constant": true,
      "inputs": [
        {
          "name": "",
          "type": "address"
        }
      ],
      "name": "userNonce",
      "outputs": [
        {
          "name": "",
          "type": "uint256"
        }
      ],
      "payable": false,
      "stateMutability": "view",
      "type": "function"
    },
    {
      "constant": true,
      "inputs": [],
      "name": "decimals",
      "outputs": [
        {
          "name": "",
          "type": "uint8"
        }
      ],
      "payable": false,
      "stateMutability": "view",
      "type": "function"
    },
    {
      "constant": false,
      "inputs": [
        {
          "name": "spender",
          "type": "address"
        },
        {
          "name": "addedValue",
          "type": "uint256"
        }
      ],
      "name": "increaseAllowance",
      "outputs": [
        {
          "name": "",
          "type": "bool"
        }
      ],
      "payable": false,
      "stateMutability": "nonpayable",
      "type": "function"
    },
    {
      "constant": true,
      "inputs": [],
      "name": "midPrice",
      "outputs": [
        {
          "name": "",
          "type": "uint256"
        }
      ],
      "payable": false,
      "stateMutability": "view",
      "type": "function"
    },
    {
      "constant": true,
      "inputs": [
        {
          "name": "account",
          "type": "address"
        }
      ],
      "name": "balanceOf",
      "outputs": [
        {
          "name": "",
          "type": "uint256"
        }
      ],
      "payable": false,
      "stateMutability": "view",
      "type": "function"
    },
    {
      "constant": true,
      "inputs": [],
      "name": "baseTokenAddress",
      "outputs": [
        {
          "name": "",
          "type": "address"
        }
      ],
      "payable": false,
      "stateMutability": "view",
      "type": "function"
    },
    {
      "constant": true,
      "inputs": [],
      "name": "symbol",
      "outputs": [
        {
          "name": "",
          "type": "string"
        }
      ],
      "payable": false,
      "stateMutability": "view",
      "type": "function"
    },
    {
      "constant": false,
      "inputs": [
        {
          "name": "spender",
          "type": "address"
        },
        {
          "name": "subtractedValue",
          "type": "uint256"
        }
      ],
      "name": "decreaseAllowance",
      "outputs": [
        {
          "name": "",
          "type": "bool"
        }
      ],
      "payable": false,
      "stateMutability": "nonpayable",
      "type": "function"
    },
    {
      "constant": false,
      "inputs": [
        {
          "name": "recipient",
          "type": "address"
        },
        {
          "name": "amount",
          "type": "uint256"
        }
      ],
      "name": "transfer",
      "outputs": [
        {
          "name": "",
          "type": "bool"
        }
      ],
      "payable": false,
      "stateMutability": "nonpayable",
      "type": "function"
    },
    {
      "constant": true,
      "inputs": [],
      "name": "sponsorTransferFee",
      "outputs": [
        {
          "name": "",
          "type": "uint256"
        }
      ],
      "payable": false,
      "stateMutability": "view",
      "type": "function"
    },
    {
      "constant": true,
      "inputs": [
        {
          "name": "owner",
          "type": "address"
        },
        {
          "name": "spender",
          "type": "address"
        }
      ],
      "name": "allowance",
      "outputs": [
        {
          "name": "",
          "type": "uint256"
        }
      ],
      "payable": false,
      "stateMutability": "view",
      "type": "function"
    },
    {
      "constant": true,
      "inputs": [],
      "name": "maxPrice",
      "outputs": [
        {
          "name": "",
          "type": "uint256"
        }
      ],
      "payable": false,
      "stateMutability": "view",
      "type": "function"
    },
    {
      "constant": true,
      "inputs": [],
      "name": "minPrice",
      "outputs": [
        {
          "name": "",
          "type": "uint256"
        }
      ],
      "payable": false,
      "stateMutability": "view",
      "type": "function"
    },
    {
      "inputs": [],
      "payable": false,
      "stateMutability": "nonpayable",
      "type": "constructor"
    },
    {
      "anonymous": false,
      "inputs": [
        {
          "indexed": true,
          "name": "from",
          "type": "address"
        },
        {
          "indexed": true,
          "name": "to",
          "type": "address"
        },
        {
          "indexed": false,
          "name": "value",
          "type": "uint256"
        }
      ],
      "name": "Transfer",
      "type": "event"
    },
    {
      "anonymous": false,
      "inputs": [
        {
          "indexed": true,
          "name": "owner",
          "type": "address"
        },
        {
          "indexed": true,
          "name": "spender",
          "type": "address"
        },
        {
          "indexed": false,
          "name": "value",
          "type": "uint256"
        }
      ],
      "name": "Approval",
      "type": "event"
    },
    {
      "constant": false,
      "inputs": [
        {
          "name": "_baseTokenAddress",
          "type": "address"
        },
        {
          "name": "_poolAddress",
          "type": "address"
        }
      ],
      "name": "setup",
      "outputs": [],
      "payable": false,
      "stateMutability": "nonpayable",
      "type": "function"
    },
    {
      "constant": true,
      "inputs": [
        {
          "name": "user",
          "type": "address"
        },
        {
          "name": "nonce",
          "type": "uint256"
        }
      ],
      "name": "isNonceAvailable",
      "outputs": [
        {
          "name": "",
          "type": "bool"
        }
      ],
      "payable": false,
      "stateMutability": "view",
      "type": "function"
    },
    {
      "constant": true,
      "inputs": [
        {
          "name": "message",
          "type": "bytes32"
        },
        {
          "name": "sig",
          "type": "bytes"
        }
      ],
      "name": "signatureToAddress",
      "outputs": [
        {
          "name": "",
          "type": "address"
        }
      ],
      "payable": false,
      "stateMutability": "pure",
      "type": "function"
    },
    {
      "constant": true,
      "inputs": [
        {
          "name": "nonce",
          "type": "uint256"
        },
        {
          "name": "from",
          "type": "address"
        },
        {
          "name": "to",
          "type": "address"
        },
        {
          "name": "amount",
          "type": "uint256"
        },
        {
          "name": "fee",
          "type": "uint256"
        },
        {
          "name": "data",
          "type": "bytes32"
        }
      ],
      "name": "hashSponsoredTransfer",
      "outputs": [
        {
          "name": "",
          "type": "bytes32"
        }
      ],
      "payable": false,
      "stateMutability": "pure",
      "type": "function"
    },
    {
      "constant": true,
      "inputs": [
        {
          "name": "sigSender",
          "type": "bytes"
        },
        {
          "name": "nonce",
          "type": "uint256"
        },
        {
          "name": "from",
          "type": "address"
        },
        {
          "name": "to",
          "type": "address"
        },
        {
          "name": "amount",
          "type": "uint256"
        },
        {
          "name": "fee",
          "type": "uint256"
        },
        {
          "name": "data",
          "type": "bytes32"
        }
      ],
      "name": "checkSponsoredTransferRequirement",
      "outputs": [
        {
          "name": "",
          "type": "uint8"
        }
      ],
      "payable": false,
      "stateMutability": "view",
      "type": "function"
    },
    {
      "constant": false,
      "inputs": [
        {
          "name": "sigSender",
          "type": "bytes"
        },
        {
          "name": "nonce",
          "type": "uint256"
        },
        {
          "name": "from",
          "type": "address"
        },
        {
          "name": "to",
          "type": "address"
        },
        {
          "name": "amount",
          "type": "uint256"
        },
        {
          "name": "fee",
          "type": "uint256"
        },
        {
          "name": "data",
          "type": "bytes32"
        }
      ],
      "name": "sponsoredTransfer",
      "outputs": [],
      "payable": false,
      "stateMutability": "nonpayable",
      "type": "function"
    },
    {
      "constant": true,
      "inputs": [
        {
          "name": "amountCoin",
          "type": "uint256"
        }
      ],
      "name": "generateVoucherPrice",
      "outputs": [
        {
          "name": "",
          "type": "uint256"
        },
        {
          "name": "",
          "type": "uint256"
        }
      ],
      "payable": false,
      "stateMutability": "view",
      "type": "function"
    },
    {
      "constant": true,
      "inputs": [
        {
          "name": "amountCoin",
          "type": "uint256"
        }
      ],
      "name": "redeemVoucherPrice",
      "outputs": [
        {
          "name": "",
          "type": "uint256"
        },
        {
          "name": "",
          "type": "uint256"
        }
      ],
      "payable": false,
      "stateMutability": "view",
      "type": "function"
    },
    {
      "constant": false,
      "inputs": [
        {
          "name": "to",
          "type": "address"
        },
        {
          "name": "amountCoin",
          "type": "uint256"
        }
      ],
      "name": "generateVoucher",
      "outputs": [],
      "payable": false,
      "stateMutability": "nonpayable",
      "type": "function"
    },
    {
      "constant": false,
      "inputs": [
        {
          "name": "amountCoin",
          "type": "uint256"
        }
      ],
      "name": "redeemVoucher",
      "outputs": [],
      "payable": false,
      "stateMutability": "nonpayable",
      "type": "function"
    }
  ],
  "bytecode": "0x60806040526000600560016101000a81548173ffffffffffffffffffffffffffffffffffffffff021916908373ffffffffffffffffffffffffffffffffffffffff1602179055506000600660006101000a81548173ffffffffffffffffffffffffffffffffffffffff021916908373ffffffffffffffffffffffffffffffffffffffff16021790555064e680992c0060075564e42c8d480060085564e1d8816400600955683635c9adc5dea00000600a5566037b4e07e14000600b55348015620000c857600080fd5b506040518060400160405280600b81526020017f566f7563686572204944520000000000000000000000000000000000000000008152506040518060400160405280600481526020017f5649445200000000000000000000000000000000000000000000000000000000815250600082600390805190602001906200014f9291906200018d565b508160049080519060200190620001689291906200018d565b5080600560006101000a81548160ff021916908360ff1602179055505050506200023c565b828054600181600116156101000203166002900490600052602060002090601f016020900481019282601f10620001d057805160ff191683800117855562000201565b8280016001018555821562000201579182015b8281111562000200578251825591602001919060010190620001e3565b5b50905062000210919062000214565b5090565b6200023991905b80821115620002355760008160009055506001016200021b565b5090565b90565b612ccd806200024c6000396000f3fe608060405234801561001057600080fd5b50600436106101cf5760003560e01c80633fe3e86411610104578063a9059cbb116100a2578063dd62ed3e11610071578063dd62ed3e14610c6c578063e38d6b5c14610ce4578063e45be8eb14610d02578063f0d7e43114610d20576101cf565b8063a9059cbb14610b51578063ba25f55e14610bb7578063bc8fb56414610c00578063c41e69e614610c1e576101cf565b806370a08231116100de57806370a08231146109c65780637cb374bd14610a1e57806395d89b4114610a68578063a457c2d714610aeb576101cf565b80633fe3e864146108a25780634c143131146109425780636bdb678a146109a8576101cf565b80631e36f45f116101715780632d34ba791161014b5780632d34ba791461075c5780632e04b8e7146107c0578063313ce56714610818578063395093511461083c576101cf565b80631e36f45f14610494578063212404bb146105d157806323b872dd146106d6576101cf565b806312d18220116101ad57806312d18220146102db5780631755ff21146103fe57806318160ddd146104485780631c6d6b5e14610466576101cf565b806306fdde03146101d4578063095ea7b3146102575780630f6ad4ec146102bd575b600080fd5b6101dc610d69565b6040518080602001828103825283818151815260200191508051906020019080838360005b8381101561021c578082015181840152602081019050610201565b50505050905090810190601f1680156102495780820380516001836020036101000a031916815260200191505b509250505060405180910390f35b6102a36004803603604081101561026d57600080fd5b81019080803573ffffffffffffffffffffffffffffffffffffffff16906020019092919080359060200190929190505050610e0b565b604051808215151515815260200191505060405180910390f35b6102c5610e29565b6040518082815260200191505060405180910390f35b6103fc600480360360e08110156102f157600080fd5b810190808035906020019064010000000081111561030e57600080fd5b82018360208201111561032057600080fd5b8035906020019184600183028401116401000000008311171561034257600080fd5b91908080601f016020809104026020016040519081016040528093929190818152602001838380828437600081840152601f19601f82011690508083019250505050505050919291929080359060200190929190803573ffffffffffffffffffffffffffffffffffffffff169060200190929190803573ffffffffffffffffffffffffffffffffffffffff169060200190929190803590602001909291908035906020019092919080359060200190929190505050610e2f565b005b61040661105f565b604051808273ffffffffffffffffffffffffffffffffffffffff1673ffffffffffffffffffffffffffffffffffffffff16815260200191505060405180910390f35b610450611085565b6040518082815260200191505060405180910390f35b6104926004803603602081101561047c57600080fd5b810190808035906020019092919050505061108f565b005b6105b5600480360360e08110156104aa57600080fd5b81019080803590602001906401000000008111156104c757600080fd5b8201836020820111156104d957600080fd5b803590602001918460018302840111640100000000831117156104fb57600080fd5b91908080601f016020809104026020016040519081016040528093929190818152602001838380828437600081840152601f19601f82011690508083019250505050505050919291929080359060200190929190803573ffffffffffffffffffffffffffffffffffffffff169060200190929190803573ffffffffffffffffffffffffffffffffffffffff169060200190929190803590602001909291908035906020019092919080359060200190929190505050611318565b604051808260ff1660ff16815260200191505060405180910390f35b610694600480360360408110156105e757600080fd5b81019080803590602001909291908035906020019064010000000081111561060e57600080fd5b82018360208201111561062057600080fd5b8035906020019184600183028401116401000000008311171561064257600080fd5b91908080601f016020809104026020016040519081016040528093929190818152602001838380828437600081840152601f19601f8201169050808301925050505050505091929192905050506113ee565b604051808273ffffffffffffffffffffffffffffffffffffffff1673ffffffffffffffffffffffffffffffffffffffff16815260200191505060405180910390f35b610742600480360360608110156106ec57600080fd5b81019080803573ffffffffffffffffffffffffffffffffffffffff169060200190929190803573ffffffffffffffffffffffffffffffffffffffff1690602001909291908035906020019092919050505061140a565b604051808215151515815260200191505060405180910390f35b6107be6004803603604081101561077257600080fd5b81019080803573ffffffffffffffffffffffffffffffffffffffff169060200190929190803573ffffffffffffffffffffffffffffffffffffffff1690602001909291905050506114e3565b005b610802600480360360208110156107d657600080fd5b81019080803573ffffffffffffffffffffffffffffffffffffffff16906020019092919050505061162d565b6040518082815260200191505060405180910390f35b610820611645565b604051808260ff1660ff16815260200191505060405180910390f35b6108886004803603604081101561085257600080fd5b81019080803573ffffffffffffffffffffffffffffffffffffffff1690602001909291908035906020019092919050505061165c565b604051808215151515815260200191505060405180910390f35b61092c600480360360c08110156108b857600080fd5b8101908080359060200190929190803573ffffffffffffffffffffffffffffffffffffffff169060200190929190803573ffffffffffffffffffffffffffffffffffffffff16906020019092919080359060200190929190803590602001909291908035906020019092919050505061170f565b6040518082815260200191505060405180910390f35b61098e6004803603604081101561095857600080fd5b81019080803573ffffffffffffffffffffffffffffffffffffffff169060200190929190803590602001909291905050506117f2565b604051808215151515815260200191505060405180910390f35b6109b061183e565b6040518082815260200191505060405180910390f35b610a08600480360360208110156109dc57600080fd5b81019080803573ffffffffffffffffffffffffffffffffffffffff169060200190929190505050611844565b6040518082815260200191505060405180910390f35b610a2661188c565b604051808273ffffffffffffffffffffffffffffffffffffffff1673ffffffffffffffffffffffffffffffffffffffff16815260200191505060405180910390f35b610a706118b2565b6040518080602001828103825283818151815260200191508051906020019080838360005b83811015610ab0578082015181840152602081019050610a95565b50505050905090810190601f168015610add5780820380516001836020036101000a031916815260200191505b509250505060405180910390f35b610b3760048036036040811015610b0157600080fd5b81019080803573ffffffffffffffffffffffffffffffffffffffff16906020019092919080359060200190929190505050611954565b604051808215151515815260200191505060405180910390f35b610b9d60048036036040811015610b6757600080fd5b81019080803573ffffffffffffffffffffffffffffffffffffffff16906020019092919080359060200190929190505050611a21565b604051808215151515815260200191505060405180910390f35b610be360048036036020811015610bcd57600080fd5b8101908080359060200190929190505050611a3f565b604051808381526020018281526020019250505060405180910390f35b610c08611acd565b6040518082815260200191505060405180910390f35b610c6a60048036036040811015610c3457600080fd5b81019080803573ffffffffffffffffffffffffffffffffffffffff16906020019092919080359060200190929190505050611ad3565b005b610cce60048036036040811015610c8257600080fd5b81019080803573ffffffffffffffffffffffffffffffffffffffff169060200190929190803573ffffffffffffffffffffffffffffffffffffffff169060200190929190505050611d91565b6040518082815260200191505060405180910390f35b610cec611e18565b6040518082815260200191505060405180910390f35b610d0a611e1e565b6040518082815260200191505060405180910390f35b610d4c60048036036020811015610d3657600080fd5b8101908080359060200190929190505050611e24565b604051808381526020018281526020019250505060405180910390f35b606060038054600181600116156101000203166002900480601f016020809104026020016040519081016040528092919081815260200182805460018160011615610100020316600290048015610e015780601f10610dd657610100808354040283529160200191610e01565b820191906000526020600020905b815481529060010190602001808311610de457829003601f168201915b5050505050905090565b6000610e1f610e18611eb2565b8484611eba565b6001905092915050565b600b5481565b6000610e4088888888888888611318565b905060008160ff1614610ebb576040517f08c379a00000000000000000000000000000000000000000000000000000000081526004018080602001828103825260168152602001807f6e6f7420656e6f75676820726571756972656d656e740000000000000000000081525060200191505060405180910390fd5b86600c60008873ffffffffffffffffffffffffffffffffffffffff1673ffffffffffffffffffffffffffffffffffffffff168152602001908152602001600020819055506000610f16600a54856120b190919063ffffffff16565b90506000811115610f3457610f3387610f2d611eb2565b836120fb565b5b610f4087600a546123b1565b600560019054906101000a900473ffffffffffffffffffffffffffffffffffffffff1673ffffffffffffffffffffffffffffffffffffffff1663a9059cbb600660009054906101000a900473ffffffffffffffffffffffffffffffffffffffff16600b546040518363ffffffff1660e01b8152600401808373ffffffffffffffffffffffffffffffffffffffff1673ffffffffffffffffffffffffffffffffffffffff16815260200182815260200192505050602060405180830381600087803b15801561100d57600080fd5b505af1158015611021573d6000803e3d6000fd5b505050506040513d602081101561103757600080fd5b8101908080519060200190929190505050506110548787876120fb565b505050505050505050565b600660009054906101000a900473ffffffffffffffffffffffffffffffffffffffff1681565b6000600254905090565b670de0b6b3a764000081101561110d576040517f08c379a00000000000000000000000000000000000000000000000000000000081526004018080602001828103825260108152602001807f616d6f756e742073656c6c206c7420310000000000000000000000000000000081525060200191505060405180910390fd5b60008061111983611e24565b9150915061112733846123b1565b600560019054906101000a900473ffffffffffffffffffffffffffffffffffffffff1673ffffffffffffffffffffffffffffffffffffffff1663a9059cbb600660009054906101000a900473ffffffffffffffffffffffffffffffffffffffff16836040518363ffffffff1660e01b8152600401808373ffffffffffffffffffffffffffffffffffffffff1673ffffffffffffffffffffffffffffffffffffffff16815260200182815260200192505050602060405180830381600087803b1580156111f257600080fd5b505af1158015611206573d6000803e3d6000fd5b505050506040513d602081101561121c57600080fd5b810190808051906020019092919050505050600560019054906101000a900473ffffffffffffffffffffffffffffffffffffffff1673ffffffffffffffffffffffffffffffffffffffff1663a9059cbb33846040518363ffffffff1660e01b8152600401808373ffffffffffffffffffffffffffffffffffffffff1673ffffffffffffffffffffffffffffffffffffffff16815260200182815260200192505050602060405180830381600087803b1580156112d757600080fd5b505af11580156112eb573d6000803e3d6000fd5b505050506040513d602081101561130157600080fd5b810190808051906020019092919050505050505050565b6000600a5483101561132d57600190506113e3565b600061133d88888888888861170f565b9050600061134b828b6113ee565b90508773ffffffffffffffffffffffffffffffffffffffff168173ffffffffffffffffffffffffffffffffffffffff161461138b576002925050506113e3565b600c60008273ffffffffffffffffffffffffffffffffffffffff1673ffffffffffffffffffffffffffffffffffffffff1681526020019081526020016000205489116113dc576003925050506113e3565b6000925050505b979650505050505050565b60006114026113fc84612569565b836125c1565b905092915050565b60006114178484846120fb565b6114d884611423611eb2565b6114d385604051806060016040528060288152602001612beb60289139600160008b73ffffffffffffffffffffffffffffffffffffffff1673ffffffffffffffffffffffffffffffffffffffff1681526020019081526020016000206000611489611eb2565b73ffffffffffffffffffffffffffffffffffffffff1673ffffffffffffffffffffffffffffffffffffffff168152602001908152602001600020546126a39092919063ffffffff16565b611eba565b600190509392505050565b600073ffffffffffffffffffffffffffffffffffffffff16600560019054906101000a900473ffffffffffffffffffffffffffffffffffffffff1673ffffffffffffffffffffffffffffffffffffffff16146115a7576040517f08c379a00000000000000000000000000000000000000000000000000000000081526004018080602001828103825260118152602001807f616c726561647920636f6e6e656374656400000000000000000000000000000081525060200191505060405180910390fd5b81600560016101000a81548173ffffffffffffffffffffffffffffffffffffffff021916908373ffffffffffffffffffffffffffffffffffffffff16021790555080600660006101000a81548173ffffffffffffffffffffffffffffffffffffffff021916908373ffffffffffffffffffffffffffffffffffffffff1602179055505050565b600c6020528060005260406000206000915090505481565b6000600560009054906101000a900460ff16905090565b6000611705611669611eb2565b84611700856001600061167a611eb2565b73ffffffffffffffffffffffffffffffffffffffff1673ffffffffffffffffffffffffffffffffffffffff16815260200190815260200160002060008973ffffffffffffffffffffffffffffffffffffffff1673ffffffffffffffffffffffffffffffffffffffff1681526020019081526020016000205461276390919063ffffffff16565b611eba565b6001905092915050565b600086868686868660405160200180807f73706f6e736f7265645472616e736665720000000000000000000000000000008152506011018781526020018673ffffffffffffffffffffffffffffffffffffffff1673ffffffffffffffffffffffffffffffffffffffff1660601b81526014018573ffffffffffffffffffffffffffffffffffffffff1673ffffffffffffffffffffffffffffffffffffffff1660601b815260140184815260200183815260200182815260200196505050505050506040516020818303038152906040528051906020012090509695505050505050565b600081600c60008573ffffffffffffffffffffffffffffffffffffffff1673ffffffffffffffffffffffffffffffffffffffff1681526020019081526020016000205410905092915050565b60085481565b60008060008373ffffffffffffffffffffffffffffffffffffffff1673ffffffffffffffffffffffffffffffffffffffff168152602001908152602001600020549050919050565b600560019054906101000a900473ffffffffffffffffffffffffffffffffffffffff1681565b606060048054600181600116156101000203166002900480601f01602080910402602001604051908101604052809291908181526020018280546001816001161561010002031660029004801561194a5780601f1061191f5761010080835404028352916020019161194a565b820191906000526020600020905b81548152906001019060200180831161192d57829003601f168201915b5050505050905090565b6000611a17611961611eb2565b84611a1285604051806060016040528060258152602001612c7d602591396001600061198b611eb2565b73ffffffffffffffffffffffffffffffffffffffff1673ffffffffffffffffffffffffffffffffffffffff16815260200190815260200160002060008a73ffffffffffffffffffffffffffffffffffffffff1673ffffffffffffffffffffffffffffffffffffffff168152602001908152602001600020546126a39092919063ffffffff16565b611eba565b6001905092915050565b6000611a35611a2e611eb2565b84846120fb565b6001905092915050565b6000806000611a73670de0b6b3a7640000611a65600754876127eb90919063ffffffff16565b61287190919063ffffffff16565b90506000611aa6670de0b6b3a7640000611a98600854886127eb90919063ffffffff16565b61287190919063ffffffff16565b90506000611abd82846120b190919063ffffffff16565b9050828194509450505050915091565b600a5481565b670de0b6b3a7640000811015611b51576040517f08c379a000000000000000000000000000000000000000000000000000000000815260040180806020018281038252600f8152602001807f616d6f756e7420627579206c742031000000000000000000000000000000000081525060200191505060405180910390fd5b600080611b5d83611a3f565b91509150600560019054906101000a900473ffffffffffffffffffffffffffffffffffffffff1673ffffffffffffffffffffffffffffffffffffffff166323b872dd3330856040518463ffffffff1660e01b8152600401808473ffffffffffffffffffffffffffffffffffffffff1673ffffffffffffffffffffffffffffffffffffffff1681526020018373ffffffffffffffffffffffffffffffffffffffff1673ffffffffffffffffffffffffffffffffffffffff1681526020018281526020019350505050602060405180830381600087803b158015611c3e57600080fd5b505af1158015611c52573d6000803e3d6000fd5b505050506040513d6020811015611c6857600080fd5b810190808051906020019092919050505050600560019054906101000a900473ffffffffffffffffffffffffffffffffffffffff1673ffffffffffffffffffffffffffffffffffffffff1663a9059cbb600660009054906101000a900473ffffffffffffffffffffffffffffffffffffffff16836040518363ffffffff1660e01b8152600401808373ffffffffffffffffffffffffffffffffffffffff1673ffffffffffffffffffffffffffffffffffffffff16815260200182815260200192505050602060405180830381600087803b158015611d4557600080fd5b505af1158015611d59573d6000803e3d6000fd5b505050506040513d6020811015611d6f57600080fd5b810190808051906020019092919050505050611d8b84846128bb565b50505050565b6000600160008473ffffffffffffffffffffffffffffffffffffffff1673ffffffffffffffffffffffffffffffffffffffff16815260200190815260200160002060008373ffffffffffffffffffffffffffffffffffffffff1673ffffffffffffffffffffffffffffffffffffffff16815260200190815260200160002054905092915050565b60075481565b60095481565b6000806000611e58670de0b6b3a7640000611e4a600854876127eb90919063ffffffff16565b61287190919063ffffffff16565b90506000611e8b670de0b6b3a7640000611e7d600954886127eb90919063ffffffff16565b61287190919063ffffffff16565b90506000611ea282846120b190919063ffffffff16565b9050818194509450505050915091565b600033905090565b600073ffffffffffffffffffffffffffffffffffffffff168373ffffffffffffffffffffffffffffffffffffffff161415611f40576040517f08c379a0000000000000000000000000000000000000000000000000000000008152600401808060200182810382526024815260200180612c596024913960400191505060405180910390fd5b600073ffffffffffffffffffffffffffffffffffffffff168273ffffffffffffffffffffffffffffffffffffffff161415611fc6576040517f08c379a0000000000000000000000000000000000000000000000000000000008152600401808060200182810382526022815260200180612b826022913960400191505060405180910390fd5b80600160008573ffffffffffffffffffffffffffffffffffffffff1673ffffffffffffffffffffffffffffffffffffffff16815260200190815260200160002060008473ffffffffffffffffffffffffffffffffffffffff1673ffffffffffffffffffffffffffffffffffffffff168152602001908152602001600020819055508173ffffffffffffffffffffffffffffffffffffffff168373ffffffffffffffffffffffffffffffffffffffff167f8c5be1e5ebec7d5bd14f71427d1e84f3dd0314c0f7b2291e5b200ac8c7c3b925836040518082815260200191505060405180910390a3505050565b60006120f383836040518060400160405280601e81526020017f536166654d6174683a207375627472616374696f6e206f766572666c6f7700008152506126a3565b905092915050565b600073ffffffffffffffffffffffffffffffffffffffff168373ffffffffffffffffffffffffffffffffffffffff161415612181576040517f08c379a0000000000000000000000000000000000000000000000000000000008152600401808060200182810382526025815260200180612c346025913960400191505060405180910390fd5b600073ffffffffffffffffffffffffffffffffffffffff168273ffffffffffffffffffffffffffffffffffffffff161415612207576040517f08c379a0000000000000000000000000000000000000000000000000000000008152600401808060200182810382526023815260200180612b3d6023913960400191505060405180910390fd5b61227281604051806060016040528060268152602001612ba4602691396000808773ffffffffffffffffffffffffffffffffffffffff1673ffffffffffffffffffffffffffffffffffffffff168152602001908152602001600020546126a39092919063ffffffff16565b6000808573ffffffffffffffffffffffffffffffffffffffff1673ffffffffffffffffffffffffffffffffffffffff16815260200190815260200160002081905550612305816000808573ffffffffffffffffffffffffffffffffffffffff1673ffffffffffffffffffffffffffffffffffffffff1681526020019081526020016000205461276390919063ffffffff16565b6000808473ffffffffffffffffffffffffffffffffffffffff1673ffffffffffffffffffffffffffffffffffffffff168152602001908152602001600020819055508173ffffffffffffffffffffffffffffffffffffffff168373ffffffffffffffffffffffffffffffffffffffff167fddf252ad1be2c89b69c2b068fc378daa952ba7f163c4a11628f55a4df523b3ef836040518082815260200191505060405180910390a3505050565b600073ffffffffffffffffffffffffffffffffffffffff168273ffffffffffffffffffffffffffffffffffffffff161415612437576040517f08c379a0000000000000000000000000000000000000000000000000000000008152600401808060200182810382526021815260200180612c136021913960400191505060405180910390fd5b6124a281604051806060016040528060228152602001612b60602291396000808673ffffffffffffffffffffffffffffffffffffffff1673ffffffffffffffffffffffffffffffffffffffff168152602001908152602001600020546126a39092919063ffffffff16565b6000808473ffffffffffffffffffffffffffffffffffffffff1673ffffffffffffffffffffffffffffffffffffffff168152602001908152602001600020819055506124f9816002546120b190919063ffffffff16565b600281905550600073ffffffffffffffffffffffffffffffffffffffff168273ffffffffffffffffffffffffffffffffffffffff167fddf252ad1be2c89b69c2b068fc378daa952ba7f163c4a11628f55a4df523b3ef836040518082815260200191505060405180910390a35050565b60008160405160200180807f19457468657265756d205369676e6564204d6573736167653a0a333200000000815250601c01828152602001915050604051602081830303815290604052805190602001209050919050565b60008060008060418551146125dc576000935050505061269d565b6020850151925060408501519150606085015160001a9050601b8160ff16101561260757601b810190505b601b8160ff161415801561261f5750601c8160ff1614155b15612630576000935050505061269d565b60018682858560405160008152602001604052604051808581526020018460ff1660ff1681526020018381526020018281526020019450505050506020604051602081039080840390855afa15801561268d573d6000803e3d6000fd5b5050506020604051035193505050505b92915050565b6000838311158290612750576040517f08c379a00000000000000000000000000000000000000000000000000000000081526004018080602001828103825283818151815260200191508051906020019080838360005b838110156127155780820151818401526020810190506126fa565b50505050905090810190601f1680156127425780820380516001836020036101000a031916815260200191505b509250505060405180910390fd5b5060008385039050809150509392505050565b6000808284019050838110156127e1576040517f08c379a000000000000000000000000000000000000000000000000000000000815260040180806020018281038252601b8152602001807f536166654d6174683a206164646974696f6e206f766572666c6f77000000000081525060200191505060405180910390fd5b8091505092915050565b6000808314156127fe576000905061286b565b600082840290508284828161280f57fe5b0414612866576040517f08c379a0000000000000000000000000000000000000000000000000000000008152600401808060200182810382526021815260200180612bca6021913960400191505060405180910390fd5b809150505b92915050565b60006128b383836040518060400160405280601a81526020017f536166654d6174683a206469766973696f6e206279207a65726f000000000000815250612a76565b905092915050565b600073ffffffffffffffffffffffffffffffffffffffff168273ffffffffffffffffffffffffffffffffffffffff16141561295e576040517f08c379a000000000000000000000000000000000000000000000000000000000815260040180806020018281038252601f8152602001807f45524332303a206d696e7420746f20746865207a65726f20616464726573730081525060200191505060405180910390fd5b6129738160025461276390919063ffffffff16565b6002819055506129ca816000808573ffffffffffffffffffffffffffffffffffffffff1673ffffffffffffffffffffffffffffffffffffffff1681526020019081526020016000205461276390919063ffffffff16565b6000808473ffffffffffffffffffffffffffffffffffffffff1673ffffffffffffffffffffffffffffffffffffffff168152602001908152602001600020819055508173ffffffffffffffffffffffffffffffffffffffff16600073ffffffffffffffffffffffffffffffffffffffff167fddf252ad1be2c89b69c2b068fc378daa952ba7f163c4a11628f55a4df523b3ef836040518082815260200191505060405180910390a35050565b60008083118290612b22576040517f08c379a00000000000000000000000000000000000000000000000000000000081526004018080602001828103825283818151815260200191508051906020019080838360005b83811015612ae7578082015181840152602081019050612acc565b50505050905090810190601f168015612b145780820380516001836020036101000a031916815260200191505b509250505060405180910390fd5b506000838581612b2e57fe5b04905080915050939250505056fe45524332303a207472616e7366657220746f20746865207a65726f206164647265737345524332303a206275726e20616d6f756e7420657863656564732062616c616e636545524332303a20617070726f766520746f20746865207a65726f206164647265737345524332303a207472616e7366657220616d6f756e7420657863656564732062616c616e6365536166654d6174683a206d756c7469706c69636174696f6e206f766572666c6f7745524332303a207472616e7366657220616d6f756e74206578636565647320616c6c6f77616e636545524332303a206275726e2066726f6d20746865207a65726f206164647265737345524332303a207472616e736665722066726f6d20746865207a65726f206164647265737345524332303a20617070726f76652066726f6d20746865207a65726f206164647265737345524332303a2064656372656173656420616c6c6f77616e63652062656c6f77207a65726fa165627a7a72305820bf07d1ad50d724bf291e9ea3c5a5e0f5726da67643bbb68eee2597f06003e9d50029",
  "source": "pragma solidity >=0.4.21 <0.6.0;\n\nimport \"./ecrecovery.sol\";\n\nimport \"openzeppelin-solidity/contracts/token/ERC20/ERC20Detailed.sol\";\nimport \"openzeppelin-solidity/contracts/token/ERC20/ERC20.sol\";\n\ncontract VoucherToken is ERC20, ERC20Detailed {\n  using SafeMath for uint256;\n\n  address public baseTokenAddress = address(0);\n  address public poolAddress = address(0);\n\n  uint256 public maxPrice = 99e10; \n  uint256 public midPrice = 98e10;\n  uint256 public minPrice = 97e10;\n  uint256 public sponsorTransferFee = 1000e18;\n  uint256 public sponsorTransferFeeInBaseToken = 98e13;\n\n  mapping(address => uint256) public userNonce;\n  \n  constructor() ERC20Detailed(\"Voucher IDR\", \"VIDR\", 0) public {\n  }\n\n  function setup(address _baseTokenAddress,address _poolAddress) public {\n    require(baseTokenAddress == address(0),\"already connected\");\n    baseTokenAddress = _baseTokenAddress;\n    poolAddress = _poolAddress;\n  }\n\n  function isNonceAvailable(address user,uint256 nonce) public view returns (bool) {\n    return (userNonce[user] < nonce);\n  }\n\n  function signatureToAddress(\n    bytes32 message,\n    bytes memory sig\n  ) public pure returns (address) {\n    return ECRecovery.recover(\n      ECRecovery.toEthSignedMessageHash(message),\n      sig\n    );\n  }\n\n  function hashSponsoredTransfer(\n    uint256 nonce,\n    address from,\n    address to,\n    uint256 amount,\n    uint256 fee,\n    bytes32 data\n  ) public pure returns (bytes32) {\n    return\n      keccak256(\n        abi.encodePacked(\n          \"sponsoredTransfer\",\n          nonce,\n          from,\n          to,\n          amount,\n          fee,\n          data)\n      );\n  }\n\n  function checkSponsoredTransferRequirement(bytes memory sigSender,\n    uint256 nonce,\n    address from,\n    address to,\n    uint256 amount,\n    uint256 fee,\n    bytes32 data\n  ) public view returns (uint8) {\n    if(fee < sponsorTransferFee) return 1;\n    bytes32 h = hashSponsoredTransfer(\n      nonce,\n      from,\n      to,\n      amount,\n      fee,\n      data\n    );\n    address user = signatureToAddress(h, sigSender);\n    if(user != from) return 2;\n    if(nonce <= userNonce[user]) return 3;\n    return 0;\n  }\n\n  function sponsoredTransfer(\n    bytes memory sigSender,\n    uint256 nonce,\n    address from,\n    address to,\n    uint256 amount,\n    uint256 fee,\n    bytes32 data) public {\n    \n    uint8 ok = checkSponsoredTransferRequirement(\n      sigSender,\n      nonce,\n      from,\n      to,\n      amount,\n      fee,\n      data\n    );\n\n    require(ok == 0,\"not enough requirement\");\n    \n    userNonce[from] = nonce;\n    uint256 senderFee = fee.sub(sponsorTransferFee);\n    if(senderFee > 0) _transfer(from,_msgSender(),senderFee);\n    _burn(from,sponsorTransferFee);\n    IERC20(baseTokenAddress).transfer(poolAddress,sponsorTransferFeeInBaseToken);\n    _transfer(from,to,amount);\n  }\n\n  function generateVoucherPrice(uint256 amountCoin) public view returns (uint256,uint256) {\n    uint256 totalMaxPrice = amountCoin.mul(maxPrice).div(1e18); // RUPE\n    uint256 totalMidPrice = amountCoin.mul(midPrice).div(1e18); // RUPE\n    uint256 totalToPool = totalMaxPrice.sub(totalMidPrice);     // RUPE\n    return (totalMaxPrice,totalToPool);\n  }\n\n  function redeemVoucherPrice(uint256 amountCoin) public view returns (uint256,uint256) {\n    uint256 totalMidPrice = amountCoin.mul(midPrice).div(1e18); // RUPE           \n    uint256 totalMinPrice = amountCoin.mul(minPrice).div(1e18); // RUPE\n    uint256 totalToPool = totalMidPrice.sub(totalMinPrice);     // RUPE\n    return (totalMinPrice,totalToPool);\n  }\n\n  function generateVoucher(address to, uint256 amountCoin) public {\n    require(amountCoin >= 1e18,\"amount buy lt 1\");\n    (uint256 totalMaxPrice, uint256 totalToPool) = generateVoucherPrice(amountCoin);\n    IERC20(baseTokenAddress).transferFrom(msg.sender,address(this),totalMaxPrice);\n    IERC20(baseTokenAddress).transfer(poolAddress,totalToPool);\n    _mint(to,amountCoin);\n  }\n\n  function redeemVoucher(uint256 amountCoin) public {\n    require(amountCoin >= 1e18,\"amount sell lt 1\");\n    (uint256 totalMinPrice, uint256 totalToPool) = redeemVoucherPrice(amountCoin);\n    _burn(msg.sender,amountCoin);\n    IERC20(baseTokenAddress).transfer(poolAddress,totalToPool);\n    IERC20(baseTokenAddress).transfer(msg.sender,totalMinPrice);\n  }\n\n}\n",
  "sourcePath": "/home/leledumbodev/xidr/harmony-devpost/smartcontract/contracts/VoucherToken.sol",
  "compiler": {
    "name": "solc",
    "version": "0.5.8+commit.23d335f2.Emscripten.clang"
  },
  "schemaVersion": "3.0.16",
  "updatedAt": "2020-09-28T12:21:32.476Z",
  "devdoc": {
    "methods": {
      "allowance(address,address)": {
        "details": "See {IERC20-allowance}."
      },
      "approve(address,uint256)": {
        "details": "See {IERC20-approve}.     * Requirements:     * - `spender` cannot be the zero address."
      },
      "balanceOf(address)": {
        "details": "See {IERC20-balanceOf}."
      },
      "decimals()": {
        "details": "Returns the number of decimals used to get its user representation. For example, if `decimals` equals `2`, a balance of `505` tokens should be displayed to a user as `5,05` (`505 / 10 ** 2`).     * Tokens usually opt for a value of 18, imitating the relationship between Ether and Wei.     * NOTE: This information is only used for _display_ purposes: it in no way affects any of the arithmetic of the contract, including {IERC20-balanceOf} and {IERC20-transfer}."
      },
      "decreaseAllowance(address,uint256)": {
        "details": "Atomically decreases the allowance granted to `spender` by the caller.     * This is an alternative to {approve} that can be used as a mitigation for problems described in {IERC20-approve}.     * Emits an {Approval} event indicating the updated allowance.     * Requirements:     * - `spender` cannot be the zero address. - `spender` must have allowance for the caller of at least `subtractedValue`."
      },
      "increaseAllowance(address,uint256)": {
        "details": "Atomically increases the allowance granted to `spender` by the caller.     * This is an alternative to {approve} that can be used as a mitigation for problems described in {IERC20-approve}.     * Emits an {Approval} event indicating the updated allowance.     * Requirements:     * - `spender` cannot be the zero address."
      },
      "name()": {
        "details": "Returns the name of the token."
      },
      "symbol()": {
        "details": "Returns the symbol of the token, usually a shorter version of the name."
      },
      "totalSupply()": {
        "details": "See {IERC20-totalSupply}."
      },
      "transfer(address,uint256)": {
        "details": "See {IERC20-transfer}.     * Requirements:     * - `recipient` cannot be the zero address. - the caller must have a balance of at least `amount`."
      },
      "transferFrom(address,address,uint256)": {
        "details": "See {IERC20-transferFrom}.     * Emits an {Approval} event indicating the updated allowance. This is not required by the EIP. See the note at the beginning of {ERC20};     * Requirements: - `sender` and `recipient` cannot be the zero address. - `sender` must have a balance of at least `amount`. - the caller must have allowance for `sender`'s tokens of at least `amount`."
      }
    }
  },
  "userdoc": {
    "methods": {}
  }
}